{
  "address": "0xf8100FecD5A9F5fAd8F39863B33Be281cD4a13B1",
  "abi": [
    {
      "inputs": [
        {
          "internalType": "string",
          "name": "_name",
          "type": "string"
        },
        {
          "internalType": "string",
          "name": "_symbol",
          "type": "string"
        },
        {
          "internalType": "address",
          "name": "_owner",
          "type": "address"
        }
      ],
      "stateMutability": "nonpayable",
      "type": "constructor"
    },
    {
      "inputs": [
        {
          "internalType": "address",
          "name": "spender",
          "type": "address"
        },
        {
          "internalType": "uint256",
          "name": "allowance",
          "type": "uint256"
        },
        {
          "internalType": "uint256",
          "name": "needed",
          "type": "uint256"
        }
      ],
      "name": "ERC20InsufficientAllowance",
      "type": "error"
    },
    {
      "inputs": [
        {
          "internalType": "address",
          "name": "sender",
          "type": "address"
        },
        {
          "internalType": "uint256",
          "name": "balance",
          "type": "uint256"
        },
        {
          "internalType": "uint256",
          "name": "needed",
          "type": "uint256"
        }
      ],
      "name": "ERC20InsufficientBalance",
      "type": "error"
    },
    {
      "inputs": [
        {
          "internalType": "address",
          "name": "approver",
          "type": "address"
        }
      ],
      "name": "ERC20InvalidApprover",
      "type": "error"
    },
    {
      "inputs": [
        {
          "internalType": "address",
          "name": "receiver",
          "type": "address"
        }
      ],
      "name": "ERC20InvalidReceiver",
      "type": "error"
    },
    {
      "inputs": [
        {
          "internalType": "address",
          "name": "sender",
          "type": "address"
        }
      ],
      "name": "ERC20InvalidSender",
      "type": "error"
    },
    {
      "inputs": [
        {
          "internalType": "address",
          "name": "spender",
          "type": "address"
        }
      ],
      "name": "ERC20InvalidSpender",
      "type": "error"
    },
    {
      "inputs": [
        {
          "internalType": "address",
          "name": "adapter",
          "type": "address"
        }
      ],
      "name": "InvalidAdapter",
      "type": "error"
    },
    {
      "inputs": [],
      "name": "InvalidAmount",
      "type": "error"
    },
    {
      "inputs": [
        {
          "internalType": "address",
          "name": "caller",
          "type": "address"
        }
      ],
      "name": "OnlyAdapter",
      "type": "error"
    },
    {
      "inputs": [
        {
          "internalType": "address",
          "name": "owner",
          "type": "address"
        }
      ],
      "name": "OwnableInvalidOwner",
      "type": "error"
    },
    {
      "inputs": [
        {
          "internalType": "address",
          "name": "account",
          "type": "address"
        }
      ],
      "name": "OwnableUnauthorizedAccount",
      "type": "error"
    },
    {
      "inputs": [
        {
          "internalType": "bytes32",
          "name": "transferId",
          "type": "bytes32"
        }
      ],
      "name": "TransferReplay",
      "type": "error"
    },
    {
      "inputs": [
        {
          "internalType": "bytes32",
          "name": "transportId",
          "type": "bytes32"
        }
      ],
      "name": "TransportReplay",
      "type": "error"
    },
    {
      "anonymous": false,
      "inputs": [
        {
          "indexed": true,
          "internalType": "address",
          "name": "adapter",
          "type": "address"
        },
        {
          "indexed": false,
          "internalType": "bool",
          "name": "enabled",
          "type": "bool"
        }
      ],
      "name": "AdapterSet",
      "type": "event"
    },
    {
      "anonymous": false,
      "inputs": [
        {
          "indexed": true,
          "internalType": "address",
          "name": "owner",
          "type": "address"
        },
        {
          "indexed": true,
          "internalType": "address",
          "name": "spender",
          "type": "address"
        },
        {
          "indexed": false,
          "internalType": "uint256",
          "name": "value",
          "type": "uint256"
        }
      ],
      "name": "Approval",
      "type": "event"
    },
    {
      "anonymous": false,
      "inputs": [
        {
          "indexed": true,
          "internalType": "bytes32",
          "name": "transferId",
          "type": "bytes32"
        },
        {
          "indexed": true,
          "internalType": "bytes32",
          "name": "transportId",
          "type": "bytes32"
        },
        {
          "indexed": true,
          "internalType": "address",
          "name": "to",
          "type": "address"
        },
        {
          "indexed": false,
          "internalType": "uint256",
          "name": "amount",
          "type": "uint256"
        }
      ],
      "name": "BridgeIn",
      "type": "event"
    },
    {
      "anonymous": false,
      "inputs": [
        {
          "indexed": true,
          "internalType": "bytes32",
          "name": "transferId",
          "type": "bytes32"
        },
        {
          "indexed": true,
          "internalType": "address",
          "name": "from",
          "type": "address"
        },
        {
          "indexed": false,
          "internalType": "uint256",
          "name": "amount",
          "type": "uint256"
        }
      ],
      "name": "BridgeOut",
      "type": "event"
    },
    {
      "anonymous": false,
      "inputs": [
        {
          "indexed": true,
          "internalType": "address",
          "name": "previousOwner",
          "type": "address"
        },
        {
          "indexed": true,
          "internalType": "address",
          "name": "newOwner",
          "type": "address"
        }
      ],
      "name": "OwnershipTransferred",
      "type": "event"
    },
    {
      "anonymous": false,
      "inputs": [
        {
          "indexed": true,
          "internalType": "address",
          "name": "from",
          "type": "address"
        },
        {
          "indexed": true,
          "internalType": "address",
          "name": "to",
          "type": "address"
        },
        {
          "indexed": false,
          "internalType": "uint256",
          "name": "value",
          "type": "uint256"
        }
      ],
      "name": "Transfer",
      "type": "event"
    },
    {
      "inputs": [
        {
          "internalType": "address",
          "name": "adapter",
          "type": "address"
        }
      ],
      "name": "adapters",
      "outputs": [
        {
          "internalType": "bool",
          "name": "enabled",
          "type": "bool"
        }
      ],
      "stateMutability": "view",
      "type": "function"
    },
    {
      "inputs": [
        {
          "internalType": "address",
          "name": "owner",
          "type": "address"
        },
        {
          "internalType": "address",
          "name": "spender",
          "type": "address"
        }
      ],
      "name": "allowance",
      "outputs": [
        {
          "internalType": "uint256",
          "name": "",
          "type": "uint256"
        }
      ],
      "stateMutability": "view",
      "type": "function"
    },
    {
      "inputs": [
        {
          "internalType": "address",
          "name": "spender",
          "type": "address"
        },
        {
          "internalType": "uint256",
          "name": "value",
          "type": "uint256"
        }
      ],
      "name": "approve",
      "outputs": [
        {
          "internalType": "bool",
          "name": "",
          "type": "bool"
        }
      ],
      "stateMutability": "nonpayable",
      "type": "function"
    },
    {
      "inputs": [
        {
          "internalType": "address",
          "name": "account",
          "type": "address"
        }
      ],
      "name": "balanceOf",
      "outputs": [
        {
          "internalType": "uint256",
          "name": "",
          "type": "uint256"
        }
      ],
      "stateMutability": "view",
      "type": "function"
    },
    {
      "inputs": [
        {
          "internalType": "address",
          "name": "_to",
          "type": "address"
        },
        {
          "internalType": "uint256",
          "name": "_amount",
          "type": "uint256"
        },
        {
          "internalType": "bytes32",
          "name": "_transferId",
          "type": "bytes32"
        },
        {
          "internalType": "bytes32",
          "name": "_transportId",
          "type": "bytes32"
        }
      ],
      "name": "bridgeIn",
      "outputs": [],
      "stateMutability": "nonpayable",
      "type": "function"
    },
    {
      "inputs": [
        {
          "internalType": "address",
          "name": "_from",
          "type": "address"
        },
        {
          "internalType": "uint256",
          "name": "_amount",
          "type": "uint256"
        },
        {
          "internalType": "bytes32",
          "name": "_transferId",
          "type": "bytes32"
        }
      ],
      "name": "bridgeOut",
      "outputs": [],
      "stateMutability": "nonpayable",
      "type": "function"
    },
    {
      "inputs": [],
      "name": "decimals",
      "outputs": [
        {
          "internalType": "uint8",
          "name": "",
          "type": "uint8"
        }
      ],
      "stateMutability": "view",
      "type": "function"
    },
    {
      "inputs": [
        {
          "internalType": "bytes32",
          "name": "transferId",
          "type": "bytes32"
        }
      ],
      "name": "inboundTransfers",
      "outputs": [
        {
          "internalType": "bool",
          "name": "consumed",
          "type": "bool"
        }
      ],
      "stateMutability": "view",
      "type": "function"
    },
    {
      "inputs": [
        {
          "internalType": "bytes32",
          "name": "transportId",
          "type": "bytes32"
        }
      ],
      "name": "inboundTransportIds",
      "outputs": [
        {
          "internalType": "bool",
          "name": "consumed",
          "type": "bool"
        }
      ],
      "stateMutability": "view",
      "type": "function"
    },
    {
      "inputs": [],
      "name": "name",
      "outputs": [
        {
          "internalType": "string",
          "name": "",
          "type": "string"
        }
      ],
      "stateMutability": "view",
      "type": "function"
    },
    {
      "inputs": [
        {
          "internalType": "bytes32",
          "name": "transferId",
          "type": "bytes32"
        }
      ],
      "name": "outboundTransfers",
      "outputs": [
        {
          "internalType": "bool",
          "name": "consumed",
          "type": "bool"
        }
      ],
      "stateMutability": "view",
      "type": "function"
    },
    {
      "inputs": [],
      "name": "owner",
      "outputs": [
        {
          "internalType": "address",
          "name": "",
          "type": "address"
        }
      ],
      "stateMutability": "view",
      "type": "function"
    },
    {
      "inputs": [],
      "name": "renounceOwnership",
      "outputs": [],
      "stateMutability": "nonpayable",
      "type": "function"
    },
    {
      "inputs": [
        {
          "internalType": "address",
          "name": "_adapter",
          "type": "address"
        },
        {
          "internalType": "bool",
          "name": "_enabled",
          "type": "bool"
        }
      ],
      "name": "setAdapter",
      "outputs": [],
      "stateMutability": "nonpayable",
      "type": "function"
    },
    {
      "inputs": [],
      "name": "symbol",
      "outputs": [
        {
          "internalType": "string",
          "name": "",
          "type": "string"
        }
      ],
      "stateMutability": "view",
      "type": "function"
    },
    {
      "inputs": [],
      "name": "totalSupply",
      "outputs": [
        {
          "internalType": "uint256",
          "name": "",
          "type": "uint256"
        }
      ],
      "stateMutability": "view",
      "type": "function"
    },
    {
      "inputs": [
        {
          "internalType": "address",
          "name": "to",
          "type": "address"
        },
        {
          "internalType": "uint256",
          "name": "value",
          "type": "uint256"
        }
      ],
      "name": "transfer",
      "outputs": [
        {
          "internalType": "bool",
          "name": "",
          "type": "bool"
        }
      ],
      "stateMutability": "nonpayable",
      "type": "function"
    },
    {
      "inputs": [
        {
          "internalType": "address",
          "name": "from",
          "type": "address"
        },
        {
          "internalType": "address",
          "name": "to",
          "type": "address"
        },
        {
          "internalType": "uint256",
          "name": "value",
          "type": "uint256"
        }
      ],
      "name": "transferFrom",
      "outputs": [
        {
          "internalType": "bool",
          "name": "",
          "type": "bool"
        }
      ],
      "stateMutability": "nonpayable",
      "type": "function"
    },
    {
      "inputs": [
        {
          "internalType": "address",
          "name": "newOwner",
          "type": "address"
        }
      ],
      "name": "transferOwnership",
      "outputs": [],
      "stateMutability": "nonpayable",
      "type": "function"
    }
  ],
  "transactionHash": "0x67fc077491b3a41419fa8c7929826ff3e4436eaf10fa8d74fd497ca9e8e68b6a",
  "args": [
    "6022",
    "6022",
    "0x4bca9E17a8326d283d1fC68A725B46b42c2D9146"
  ],
  "numDeployments": 1,
  "solcInputHash": "c7f3c7bc2113265409df1b36afc191e0",
  "bytecode": "0x60806040523480156200001157600080fd5b506040516200119d3803806200119d8339810160408190526200003491620001b7565b808084846003620000468382620002d5565b506004620000558282620002d5565b5050506001600160a01b0381166200008757604051631e4fbdf760e01b81526000600482015260240160405180910390fd5b62000092816200009d565b5050505050620003a1565b600580546001600160a01b038381166001600160a01b0319831681179093556040519116919082907f8be0079c531659141344cd1fd0a4f28419497f9722a3daafe3b4186f6b6457e090600090a35050565b634e487b7160e01b600052604160045260246000fd5b600082601f8301126200011757600080fd5b81516001600160401b0380821115620001345762000134620000ef565b604051601f8301601f19908116603f011681019082821181831017156200015f576200015f620000ef565b81604052838152602092508660208588010111156200017d57600080fd5b600091505b83821015620001a1578582018301518183018401529082019062000182565b6000602085830101528094505050505092915050565b600080600060608486031215620001cd57600080fd5b83516001600160401b0380821115620001e557600080fd5b620001f38783880162000105565b945060208601519150808211156200020a57600080fd5b50620002198682870162000105565b604086015190935090506001600160a01b03811681146200023957600080fd5b809150509250925092565b600181811c908216806200025957607f821691505b6020821081036200027a57634e487b7160e01b600052602260045260246000fd5b50919050565b601f821115620002d0576000816000526020600020601f850160051c81016020861015620002ab5750805b601f850160051c820191505b81811015620002cc57828155600101620002b7565b5050505b505050565b81516001600160401b03811115620002f157620002f1620000ef565b620003098162000302845462000244565b8462000280565b602080601f831160018114620003415760008415620003285750858301515b600019600386901b1c1916600185901b178555620002cc565b600085815260208120601f198616915b82811015620003725788860151825594840194600190910190840162000351565b5085821015620003915787850151600019600388901b60f8161c191681555b5050505050600190811b01905550565b610dec80620003b16000396000f3fe608060405234801561001057600080fd5b50600436106101215760003560e01c8063715018a6116100ad578063a9059cbb11610071578063a9059cbb14610271578063ce8a9dc314610284578063dd62ed3e146102a7578063e5711ffc146102e0578063f2fde38b1461030357600080fd5b8063715018a61461020b5780637c5620de146102135780638da5cb5b1461023657806395d89b41146102565780639d10f39d1461025e57600080fd5b8063216ec722116100f4578063216ec7221461019857806323b872dd146101ad578063313ce567146101c0578063332f6465146101cf57806370a08231146101e257600080fd5b80630530d6131461012657806306fdde031461015e578063095ea7b31461017357806318160ddd14610186575b600080fd5b610149610134366004610b74565b60096020526000908152604090205460ff1681565b60405190151581526020015b60405180910390f35b610166610316565b6040516101559190610b8d565b610149610181366004610bf8565b6103a8565b6002545b604051908152602001610155565b6101ab6101a6366004610c22565b6103c2565b005b6101496101bb366004610c5b565b610521565b60405160128152602001610155565b6101ab6101dd366004610c97565b610545565b61018a6101f0366004610cd3565b6001600160a01b031660009081526020819052604090205490565b6101ab6105de565b610149610221366004610b74565b60086020526000908152604090205460ff1681565b61023e6105f2565b6040516001600160a01b039091168152602001610155565b610166610601565b6101ab61026c366004610cf5565b610610565b61014961027f366004610bf8565b61071a565b610149610292366004610b74565b60076020526000908152604090205460ff1681565b61018a6102b5366004610d28565b6001600160a01b03918216600090815260016020908152604080832093909416825291909152205490565b6101496102ee366004610cd3565b60066020526000908152604090205460ff1681565b6101ab610311366004610cd3565b610728565b60606003805461032590610d5b565b80601f016020809104026020016040519081016040528092919081815260200182805461035190610d5b565b801561039e5780601f106103735761010080835404028352916020019161039e565b820191906000526020600020905b81548152906001019060200180831161038157829003601f168201915b5050505050905090565b6000336103b6818585610766565b60019150505b92915050565b3360009081526006602052604090205460ff166103f85760405162a56d5360e61b81523360048201526024015b60405180910390fd5b826000036104195760405163162908e360e11b815260040160405180910390fd5b60008181526009602052604090205460ff161561044c57604051630292616160e31b8152600481018290526024016103ef565b60008281526008602052604090205460ff1680610477575060008281526007602052604090205460ff165b156104985760405163c532c35d60e01b8152600481018390526024016103ef565b60008181526009602090815260408083208054600160ff19918216811790925586855260089093529220805490911690911790556104d68484610778565b836001600160a01b031681837f78772174f96ce919cae4f65cc2244446a623c6d9bb70cc6d737c28c93dee9a618660405161051391815260200190565b60405180910390a450505050565b60003361052f85828561079a565b61053a858585610819565b506001949350505050565b61054d610878565b6001600160a01b03821661057f57604051633283c86d60e21b81526001600160a01b03831660048201526024016103ef565b6001600160a01b038216600081815260066020908152604091829020805460ff191685151590811790915591519182527f85ff5d10aa202e69f691155a2050fed648b2d67f85e35d1279510cc434023736910160405180910390a25050565b6105e6610878565b6105f060006108aa565b565b60006105fc6108fc565b905090565b60606004805461032590610d5b565b3360009081526006602052604090205460ff166106415760405162a56d5360e61b81523360048201526024016103ef565b816000036106625760405163162908e360e11b815260040160405180910390fd5b60008181526007602052604090205460ff168061068d575060008181526008602052604090205460ff165b156106ae5760405163c532c35d60e01b8152600481018290526024016103ef565b6000818152600760205260409020805460ff191660011790556106d18383610910565b826001600160a01b0316817fd725e36531db02d8d15a3ef474ec75f5120d499c2d11fcae6bb1f481eb0b20288460405161070d91815260200190565b60405180910390a3505050565b6000336103b6818585610819565b610730610878565b6001600160a01b03811661075a57604051631e4fbdf760e01b8152600060048201526024016103ef565b610763816108aa565b50565b610773838383600161091a565b505050565b6001600160a01b03821661078c5761dead91505b61079682826109ef565b5050565b6001600160a01b03838116600090815260016020908152604080832093861683529290522054600019811015610813578181101561080457604051637dc7a0d960e11b81526001600160a01b038416600482015260248101829052604481018390526064016103ef565b6108138484848403600061091a565b50505050565b6001600160a01b03831661084357604051634b637e8f60e11b8152600060048201526024016103ef565b6001600160a01b03821661086d5760405163ec442f0560e01b8152600060048201526024016103ef565b610773838383610a21565b336108816105f2565b6001600160a01b0316146105f05760405163118cdaa760e01b81523360048201526024016103ef565b600580546001600160a01b038381166001600160a01b0319831681179093556040519116919082907f8be0079c531659141344cd1fd0a4f28419497f9722a3daafe3b4186f6b6457e090600090a35050565b60006105fc6005546001600160a01b031690565b6107968282610b3e565b6001600160a01b0384166109445760405163e602df0560e01b8152600060048201526024016103ef565b6001600160a01b03831661096e57604051634a1406b160e11b8152600060048201526024016103ef565b6001600160a01b038085166000908152600160209081526040808320938716835292905220829055801561081357826001600160a01b0316846001600160a01b03167f8c5be1e5ebec7d5bd14f71427d1e84f3dd0314c0f7b2291e5b200ac8c7c3b925846040516109e191815260200190565b60405180910390a350505050565b6001600160a01b038216610a195760405163ec442f0560e01b8152600060048201526024016103ef565b610796600083835b6001600160a01b038316610a4c578060026000828254610a419190610d95565b90915550610abe9050565b6001600160a01b03831660009081526020819052604090205481811015610a9f5760405163391434e360e21b81526001600160a01b038516600482015260248101829052604481018390526064016103ef565b6001600160a01b03841660009081526020819052604090209082900390555b6001600160a01b038216610ada57600280548290039055610af9565b6001600160a01b03821660009081526020819052604090208054820190555b816001600160a01b0316836001600160a01b03167fddf252ad1be2c89b69c2b068fc378daa952ba7f163c4a11628f55a4df523b3ef8360405161070d91815260200190565b6001600160a01b038216610b6857604051634b637e8f60e11b8152600060048201526024016103ef565b61079682600083610a21565b600060208284031215610b8657600080fd5b5035919050565b60006020808352835180602085015260005b81811015610bbb57858101830151858201604001528201610b9f565b506000604082860101526040601f19601f8301168501019250505092915050565b80356001600160a01b0381168114610bf357600080fd5b919050565b60008060408385031215610c0b57600080fd5b610c1483610bdc565b946020939093013593505050565b60008060008060808587031215610c3857600080fd5b610c4185610bdc565b966020860135965060408601359560600135945092505050565b600080600060608486031215610c7057600080fd5b610c7984610bdc565b9250610c8760208501610bdc565b9150604084013590509250925092565b60008060408385031215610caa57600080fd5b610cb383610bdc565b915060208301358015158114610cc857600080fd5b809150509250929050565b600060208284031215610ce557600080fd5b610cee82610bdc565b9392505050565b600080600060608486031215610d0a57600080fd5b610d1384610bdc565b95602085013595506040909401359392505050565b60008060408385031215610d3b57600080fd5b610d4483610bdc565b9150610d5260208401610bdc565b90509250929050565b600181811c90821680610d6f57607f821691505b602082108103610d8f57634e487b7160e01b600052602260045260246000fd5b50919050565b808201808211156103bc57634e487b7160e01b600052601160045260246000fdfea2646970667358221220d3dc4d3c65875e5ea3e9e57dd555431b8a7fcb38e66f8e7f1fb7991f4e5c163164736f6c63430008160033",
  "devdoc": {
    "errors": {
      "ERC20InsufficientAllowance(address,uint256,uint256)": [
        {
          "details": "Indicates a failure with the `spender`s `allowance`. Used in transfers.",
          "params": {
            "allowance": "Amount of tokens a `spender` is allowed to operate with.",
            "needed": "Minimum amount required to perform a transfer.",
            "spender": "Address that may be allowed to operate on tokens without being their owner."
          }
        }
      ],
      "ERC20InsufficientBalance(address,uint256,uint256)": [
        {
          "details": "Indicates an error related to the current `balance` of a `sender`. Used in transfers.",
          "params": {
            "balance": "Current balance for the interacting account.",
            "needed": "Minimum amount required to perform a transfer.",
            "sender": "Address whose tokens are being transferred."
          }
        }
      ],
      "ERC20InvalidApprover(address)": [
        {
          "details": "Indicates a failure with the `approver` of a token to be approved. Used in approvals.",
          "params": {
            "approver": "Address initiating an approval operation."
          }
        }
      ],
      "ERC20InvalidReceiver(address)": [
        {
          "details": "Indicates a failure with the token `receiver`. Used in transfers.",
          "params": {
            "receiver": "Address to which tokens are being transferred."
          }
        }
      ],
      "ERC20InvalidSender(address)": [
        {
          "details": "Indicates a failure with the token `sender`. Used in transfers.",
          "params": {
            "sender": "Address whose tokens are being transferred."
          }
        }
      ],
      "ERC20InvalidSpender(address)": [
        {
          "details": "Indicates a failure with the `spender` to be approved. Used in approvals.",
          "params": {
            "spender": "Address that may be allowed to operate on tokens without being their owner."
          }
        }
      ],
      "InvalidAdapter(address)": [
        {
          "params": {
            "adapter": "Invalid adapter address."
          }
        }
      ],
      "OnlyAdapter(address)": [
        {
          "params": {
            "caller": "Unauthorized caller address."
          }
        }
      ],
      "OwnableInvalidOwner(address)": [
        {
          "details": "The owner is not a valid owner account. (eg. `address(0)`)"
        }
      ],
      "OwnableUnauthorizedAccount(address)": [
        {
          "details": "The caller account is not authorized to perform an operation."
        }
      ],
      "TransferReplay(bytes32)": [
        {
          "params": {
            "transferId": "Replayed transfer identifier."
          }
        }
      ],
      "TransportReplay(bytes32)": [
        {
          "params": {
            "transportId": "Replayed transport identifier."
          }
        }
      ]
    },
    "events": {
      "AdapterSet(address,bool)": {
        "params": {
          "adapter": "Adapter address.",
          "enabled": "Whether the adapter is enabled."
        }
      },
      "Approval(address,address,uint256)": {
        "details": "Emitted when the allowance of a `spender` for an `owner` is set by a call to {approve}. `value` is the new allowance."
      },
      "BridgeIn(bytes32,bytes32,address,uint256)": {
        "params": {
          "amount": "Bridged token amount.",
          "to": "Recipient address on this chain.",
          "transferId": "Cross-chain transfer identifier.",
          "transportId": "Transport-level message identifier."
        }
      },
      "BridgeOut(bytes32,address,uint256)": {
        "params": {
          "amount": "Bridged token amount.",
          "from": "Source address on this chain.",
          "transferId": "Cross-chain transfer identifier."
        }
      },
      "Transfer(address,address,uint256)": {
        "details": "Emitted when `value` tokens are moved from one account (`from`) to another (`to`). Note that `value` may be zero."
      }
    },
    "kind": "dev",
    "methods": {
      "allowance(address,address)": {
        "details": "Returns the remaining number of tokens that `spender` will be allowed to spend on behalf of `owner` through {transferFrom}. This is zero by default. This value changes when {approve} or {transferFrom} are called."
      },
      "approve(address,uint256)": {
        "details": "See {IERC20-approve}. NOTE: If `value` is the maximum `uint256`, the allowance is not updated on `transferFrom`. This is semantically equivalent to an infinite approval. Requirements: - `spender` cannot be the zero address."
      },
      "balanceOf(address)": {
        "details": "Returns the value of tokens owned by `account`."
      },
      "bridgeIn(address,uint256,bytes32,bytes32)": {
        "params": {
          "_amount": "Token amount bridged in.",
          "_to": "Recipient of bridged tokens.",
          "_transferId": "Cross-chain transfer identifier.",
          "_transportId": "Transport-level message identifier."
        }
      },
      "bridgeOut(address,uint256,bytes32)": {
        "params": {
          "_amount": "Token amount bridged out.",
          "_from": "Address whose tokens are bridged out.",
          "_transferId": "Cross-chain transfer identifier."
        }
      },
      "constructor": {
        "params": {
          "_name": "ERC20 token name.",
          "_owner": "Owner allowed to manage adapters.",
          "_symbol": "ERC20 token symbol."
        }
      },
      "decimals()": {
        "details": "Returns the number of decimals used to get its user representation. For example, if `decimals` equals `2`, a balance of `505` tokens should be displayed to a user as `5.05` (`505 / 10 ** 2`). Tokens usually opt for a value of 18, imitating the relationship between Ether and Wei. This is the default value returned by this function, unless it's overridden. NOTE: This information is only used for _display_ purposes: it in no way affects any of the arithmetic of the contract, including {IERC20-balanceOf} and {IERC20-transfer}."
      },
      "name()": {
        "details": "Returns the name of the token."
      },
      "renounceOwnership()": {
        "details": "Leaves the contract without owner. It will not be possible to call `onlyOwner` functions. Can only be called by the current owner. NOTE: Renouncing ownership will leave the contract without an owner, thereby disabling any functionality that is only available to the owner."
      },
      "setAdapter(address,bool)": {
        "params": {
          "_adapter": "Adapter address to update.",
          "_enabled": "Whether the adapter is authorized."
        }
      },
      "symbol()": {
        "details": "Returns the symbol of the token, usually a shorter version of the name."
      },
      "totalSupply()": {
        "details": "Returns the value of tokens in existence."
      },
      "transfer(address,uint256)": {
        "details": "See {IERC20-transfer}. Requirements: - `to` cannot be the zero address. - the caller must have a balance of at least `value`."
      },
      "transferFrom(address,address,uint256)": {
        "details": "See {IERC20-transferFrom}. Skips emitting an {Approval} event indicating an allowance update. This is not required by the ERC. See {xref-ERC20-_approve-address-address-uint256-bool-}[_approve]. NOTE: Does not update the allowance if the current allowance is the maximum `uint256`. Requirements: - `from` and `to` cannot be the zero address. - `from` must have a balance of at least `value`. - the caller must have allowance for ``from``'s tokens of at least `value`."
      },
      "transferOwnership(address)": {
        "details": "Transfers ownership of the contract to a new account (`newOwner`). Can only be called by the current owner."
      }
    },
    "version": 1
  },
  "userdoc": {
    "errors": {
      "InvalidAdapter(address)": [
        {
          "notice": "Thrown when attempting to configure a zero adapter address."
        }
      ],
      "InvalidAmount()": [
        {
          "notice": "Thrown when the bridged amount is zero."
        }
      ],
      "OnlyAdapter(address)": [
        {
          "notice": "Thrown when a caller is not an authorized bridge adapter."
        }
      ],
      "TransferReplay(bytes32)": [
        {
          "notice": "Thrown when a transfer identifier has already been consumed."
        }
      ],
      "TransportReplay(bytes32)": [
        {
          "notice": "Thrown when a transport identifier has already been consumed."
        }
      ]
    },
    "events": {
      "AdapterSet(address,bool)": {
        "notice": "Emitted when an adapter authorization is updated."
      },
      "BridgeIn(bytes32,bytes32,address,uint256)": {
        "notice": "Emitted when an inbound bridge operation is processed."
      },
      "BridgeOut(bytes32,address,uint256)": {
        "notice": "Emitted when an outbound bridge operation is processed."
      }
    },
    "kind": "user",
    "methods": {
      "adapters(address)": {
        "notice": "Returns whether an adapter is authorized to call bridge methods."
      },
      "bridgeIn(address,uint256,bytes32,bytes32)": {
        "notice": "Processes inbound bridge flow and marks transfer and transport ids as consumed."
      },
      "bridgeOut(address,uint256,bytes32)": {
        "notice": "Processes outbound bridge flow and marks transfer id as consumed."
      },
      "constructor": {
        "notice": "Initializes a mint/burn satellite token for bridged liquidity."
      },
      "inboundTransfers(bytes32)": {
        "notice": "Returns whether an inbound transfer identifier has been consumed."
      },
      "inboundTransportIds(bytes32)": {
        "notice": "Returns whether an inbound transport identifier has been consumed."
      },
      "outboundTransfers(bytes32)": {
        "notice": "Returns whether an outbound transfer identifier has been consumed."
      },
      "setAdapter(address,bool)": {
        "notice": "Enables or disables an adapter."
      }
    },
    "version": 1
  },
  "storageLayout": {
    "storage": [
      {
        "astId": 1970,
        "contract": "contracts/Token6022BridgeCoreSatellite.sol:Token6022BridgeCoreSatellite",
        "label": "_balances",
        "offset": 0,
        "slot": "0",
        "type": "t_mapping(t_address,t_uint256)"
      },
      {
        "astId": 1976,
        "contract": "contracts/Token6022BridgeCoreSatellite.sol:Token6022BridgeCoreSatellite",
        "label": "_allowances",
        "offset": 0,
        "slot": "1",
        "type": "t_mapping(t_address,t_mapping(t_address,t_uint256))"
      },
      {
        "astId": 1978,
        "contract": "contracts/Token6022BridgeCoreSatellite.sol:Token6022BridgeCoreSatellite",
        "label": "_totalSupply",
        "offset": 0,
        "slot": "2",
        "type": "t_uint256"
      },
      {
        "astId": 1980,
        "contract": "contracts/Token6022BridgeCoreSatellite.sol:Token6022BridgeCoreSatellite",
        "label": "_name",
        "offset": 0,
        "slot": "3",
        "type": "t_string_storage"
      },
      {
        "astId": 1982,
        "contract": "contracts/Token6022BridgeCoreSatellite.sol:Token6022BridgeCoreSatellite",
        "label": "_symbol",
        "offset": 0,
        "slot": "4",
        "type": "t_string_storage"
      },
      {
        "astId": 1581,
        "contract": "contracts/Token6022BridgeCoreSatellite.sol:Token6022BridgeCoreSatellite",
        "label": "_owner",
        "offset": 0,
        "slot": "5",
        "type": "t_address"
      },
      {
        "astId": 3088,
        "contract": "contracts/Token6022BridgeCoreSatellite.sol:Token6022BridgeCoreSatellite",
        "label": "adapters",
        "offset": 0,
        "slot": "6",
        "type": "t_mapping(t_address,t_bool)"
      },
      {
        "astId": 3092,
        "contract": "contracts/Token6022BridgeCoreSatellite.sol:Token6022BridgeCoreSatellite",
        "label": "outboundTransfers",
        "offset": 0,
        "slot": "7",
        "type": "t_mapping(t_bytes32,t_bool)"
      },
      {
        "astId": 3096,
        "contract": "contracts/Token6022BridgeCoreSatellite.sol:Token6022BridgeCoreSatellite",
        "label": "inboundTransfers",
        "offset": 0,
        "slot": "8",
        "type": "t_mapping(t_bytes32,t_bool)"
      },
      {
        "astId": 3100,
        "contract": "contracts/Token6022BridgeCoreSatellite.sol:Token6022BridgeCoreSatellite",
        "label": "inboundTransportIds",
        "offset": 0,
        "slot": "9",
        "type": "t_mapping(t_bytes32,t_bool)"
      }
    ],
    "types": {
      "t_address": {
        "encoding": "inplace",
        "label": "address",
        "numberOfBytes": "20"
      },
      "t_bool": {
        "encoding": "inplace",
        "label": "bool",
        "numberOfBytes": "1"
      },
      "t_bytes32": {
        "encoding": "inplace",
        "label": "bytes32",
        "numberOfBytes": "32"
      },
      "t_mapping(t_address,t_bool)": {
        "encoding": "mapping",
        "key": "t_address",
        "label": "mapping(address => bool)",
        "numberOfBytes": "32",
        "value": "t_bool"
      },
      "t_mapping(t_address,t_mapping(t_address,t_uint256))": {
        "encoding": "mapping",
        "key": "t_address",
        "label": "mapping(address => mapping(address => uint256))",
        "numberOfBytes": "32",
        "value": "t_mapping(t_address,t_uint256)"
      },
      "t_mapping(t_address,t_uint256)": {
        "encoding": "mapping",
        "key": "t_address",
        "label": "mapping(address => uint256)",
        "numberOfBytes": "32",
        "value": "t_uint256"
      },
      "t_mapping(t_bytes32,t_bool)": {
        "encoding": "mapping",
        "key": "t_bytes32",
        "label": "mapping(bytes32 => bool)",
        "numberOfBytes": "32",
        "value": "t_bool"
      },
      "t_string_storage": {
        "encoding": "bytes",
        "label": "string",
        "numberOfBytes": "32"
      },
      "t_uint256": {
        "encoding": "inplace",
        "label": "uint256",
        "numberOfBytes": "32"
      }
    }
  }
}