{
  "address": "0xbB2CEbf252EaDdf1674Cc7C458FCf4877704820F",
  "abi": [
    {
      "inputs": [
        {
          "internalType": "address",
          "name": "_token",
          "type": "address"
        },
        {
          "internalType": "address",
          "name": "_owner",
          "type": "address"
        }
      ],
      "stateMutability": "nonpayable",
      "type": "constructor"
    },
    {
      "inputs": [
        {
          "internalType": "address",
          "name": "adapter",
          "type": "address"
        }
      ],
      "name": "InvalidAdapter",
      "type": "error"
    },
    {
      "inputs": [],
      "name": "InvalidAmount",
      "type": "error"
    },
    {
      "inputs": [
        {
          "internalType": "address",
          "name": "token",
          "type": "address"
        }
      ],
      "name": "InvalidToken",
      "type": "error"
    },
    {
      "inputs": [
        {
          "internalType": "address",
          "name": "caller",
          "type": "address"
        }
      ],
      "name": "OnlyAdapter",
      "type": "error"
    },
    {
      "inputs": [
        {
          "internalType": "address",
          "name": "owner",
          "type": "address"
        }
      ],
      "name": "OwnableInvalidOwner",
      "type": "error"
    },
    {
      "inputs": [
        {
          "internalType": "address",
          "name": "account",
          "type": "address"
        }
      ],
      "name": "OwnableUnauthorizedAccount",
      "type": "error"
    },
    {
      "inputs": [
        {
          "internalType": "address",
          "name": "token",
          "type": "address"
        }
      ],
      "name": "SafeERC20FailedOperation",
      "type": "error"
    },
    {
      "inputs": [
        {
          "internalType": "bytes32",
          "name": "transferId",
          "type": "bytes32"
        }
      ],
      "name": "TransferReplay",
      "type": "error"
    },
    {
      "inputs": [
        {
          "internalType": "bytes32",
          "name": "transportId",
          "type": "bytes32"
        }
      ],
      "name": "TransportReplay",
      "type": "error"
    },
    {
      "anonymous": false,
      "inputs": [
        {
          "indexed": true,
          "internalType": "address",
          "name": "adapter",
          "type": "address"
        },
        {
          "indexed": false,
          "internalType": "bool",
          "name": "enabled",
          "type": "bool"
        }
      ],
      "name": "AdapterSet",
      "type": "event"
    },
    {
      "anonymous": false,
      "inputs": [
        {
          "indexed": true,
          "internalType": "bytes32",
          "name": "transferId",
          "type": "bytes32"
        },
        {
          "indexed": true,
          "internalType": "bytes32",
          "name": "transportId",
          "type": "bytes32"
        },
        {
          "indexed": true,
          "internalType": "address",
          "name": "to",
          "type": "address"
        },
        {
          "indexed": false,
          "internalType": "uint256",
          "name": "amount",
          "type": "uint256"
        }
      ],
      "name": "BridgeIn",
      "type": "event"
    },
    {
      "anonymous": false,
      "inputs": [
        {
          "indexed": true,
          "internalType": "bytes32",
          "name": "transferId",
          "type": "bytes32"
        },
        {
          "indexed": true,
          "internalType": "address",
          "name": "from",
          "type": "address"
        },
        {
          "indexed": false,
          "internalType": "uint256",
          "name": "amount",
          "type": "uint256"
        }
      ],
      "name": "BridgeOut",
      "type": "event"
    },
    {
      "anonymous": false,
      "inputs": [
        {
          "indexed": true,
          "internalType": "address",
          "name": "previousOwner",
          "type": "address"
        },
        {
          "indexed": true,
          "internalType": "address",
          "name": "newOwner",
          "type": "address"
        }
      ],
      "name": "OwnershipTransferred",
      "type": "event"
    },
    {
      "inputs": [
        {
          "internalType": "address",
          "name": "adapter",
          "type": "address"
        }
      ],
      "name": "adapters",
      "outputs": [
        {
          "internalType": "bool",
          "name": "enabled",
          "type": "bool"
        }
      ],
      "stateMutability": "view",
      "type": "function"
    },
    {
      "inputs": [
        {
          "internalType": "address",
          "name": "_to",
          "type": "address"
        },
        {
          "internalType": "uint256",
          "name": "_amount",
          "type": "uint256"
        },
        {
          "internalType": "bytes32",
          "name": "_transferId",
          "type": "bytes32"
        },
        {
          "internalType": "bytes32",
          "name": "_transportId",
          "type": "bytes32"
        }
      ],
      "name": "bridgeIn",
      "outputs": [],
      "stateMutability": "nonpayable",
      "type": "function"
    },
    {
      "inputs": [
        {
          "internalType": "address",
          "name": "_from",
          "type": "address"
        },
        {
          "internalType": "uint256",
          "name": "_amount",
          "type": "uint256"
        },
        {
          "internalType": "bytes32",
          "name": "_transferId",
          "type": "bytes32"
        }
      ],
      "name": "bridgeOut",
      "outputs": [],
      "stateMutability": "nonpayable",
      "type": "function"
    },
    {
      "inputs": [
        {
          "internalType": "bytes32",
          "name": "transferId",
          "type": "bytes32"
        }
      ],
      "name": "inboundTransfers",
      "outputs": [
        {
          "internalType": "bool",
          "name": "consumed",
          "type": "bool"
        }
      ],
      "stateMutability": "view",
      "type": "function"
    },
    {
      "inputs": [
        {
          "internalType": "bytes32",
          "name": "transportId",
          "type": "bytes32"
        }
      ],
      "name": "inboundTransportIds",
      "outputs": [
        {
          "internalType": "bool",
          "name": "consumed",
          "type": "bool"
        }
      ],
      "stateMutability": "view",
      "type": "function"
    },
    {
      "inputs": [
        {
          "internalType": "bytes32",
          "name": "transferId",
          "type": "bytes32"
        }
      ],
      "name": "outboundTransfers",
      "outputs": [
        {
          "internalType": "bool",
          "name": "consumed",
          "type": "bool"
        }
      ],
      "stateMutability": "view",
      "type": "function"
    },
    {
      "inputs": [],
      "name": "owner",
      "outputs": [
        {
          "internalType": "address",
          "name": "",
          "type": "address"
        }
      ],
      "stateMutability": "view",
      "type": "function"
    },
    {
      "inputs": [],
      "name": "renounceOwnership",
      "outputs": [],
      "stateMutability": "nonpayable",
      "type": "function"
    },
    {
      "inputs": [
        {
          "internalType": "address",
          "name": "_adapter",
          "type": "address"
        },
        {
          "internalType": "bool",
          "name": "_enabled",
          "type": "bool"
        }
      ],
      "name": "setAdapter",
      "outputs": [],
      "stateMutability": "nonpayable",
      "type": "function"
    },
    {
      "inputs": [],
      "name": "token",
      "outputs": [
        {
          "internalType": "address",
          "name": "",
          "type": "address"
        }
      ],
      "stateMutability": "view",
      "type": "function"
    },
    {
      "inputs": [
        {
          "internalType": "address",
          "name": "newOwner",
          "type": "address"
        }
      ],
      "name": "transferOwnership",
      "outputs": [],
      "stateMutability": "nonpayable",
      "type": "function"
    }
  ],
  "transactionHash": "0x3027c0960225ec810b589e9b9cbb3edd648a903555ed381d8bb304d867658e17",
  "args": [
    "0x26adaf578361953e8F1aC86D3e4Ca153493af5cB",
    "0x4bca9E17a8326d283d1fC68A725B46b42c2D9146"
  ],
  "numDeployments": 1,
  "solcInputHash": "c7f3c7bc2113265409df1b36afc191e0",
  "bytecode": "0x60a060405234801561001057600080fd5b506040516109fe3803806109fe83398101604081905261002f9161011b565b80806001600160a01b03811661006057604051631e4fbdf760e01b8152600060048201526024015b60405180910390fd5b610069816100af565b50506001600160a01b03821661009d5760405163961c9a4f60e01b81526001600160a01b0383166004820152602401610057565b506001600160a01b031660805261014e565b600080546001600160a01b038381166001600160a01b0319831681178455604051919092169283917f8be0079c531659141344cd1fd0a4f28419497f9722a3daafe3b4186f6b6457e09190a35050565b80516001600160a01b038116811461011657600080fd5b919050565b6000806040838503121561012e57600080fd5b610137836100ff565b9150610145602084016100ff565b90509250929050565b608051610887610177600039600081816101cf01528181610552015261061601526108876000f3fe608060405234801561001057600080fd5b50600436106100a95760003560e01c80638da5cb5b116100715780638da5cb5b146101395780639d10f39d1461015e578063ce8a9dc314610171578063e5711ffc14610194578063f2fde38b146101b7578063fc0c546a146101ca57600080fd5b80630530d613146100ae578063216ec722146100e6578063332f6465146100fb578063715018a61461010e5780637c5620de14610116575b600080fd5b6100d16100bc366004610752565b60046020526000908152604090205460ff1681565b60405190151581526020015b60405180910390f35b6100f96100f4366004610787565b6101f1565b005b6100f96101093660046107c0565b610350565b6100f96103e9565b6100d1610124366004610752565b60036020526000908152604090205460ff1681565b6000546001600160a01b03165b6040516001600160a01b0390911681526020016100dd565b6100f961016c3660046107fc565b6103fd565b6100d161017f366004610752565b60026020526000908152604090205460ff1681565b6100d16101a236600461082f565b60016020526000908152604090205460ff1681565b6100f96101c536600461082f565b610507565b6101467f000000000000000000000000000000000000000000000000000000000000000081565b3360009081526001602052604090205460ff166102275760405162a56d5360e61b81523360048201526024015b60405180910390fd5b826000036102485760405163162908e360e11b815260040160405180910390fd5b60008181526004602052604090205460ff161561027b57604051630292616160e31b81526004810182905260240161021e565b60008281526003602052604090205460ff16806102a6575060008281526002602052604090205460ff165b156102c75760405163c532c35d60e01b81526004810183905260240161021e565b60008181526004602090815260408083208054600160ff19918216811790925586855260039093529220805490911690911790556103058484610545565b836001600160a01b031681837f78772174f96ce919cae4f65cc2244446a623c6d9bb70cc6d737c28c93dee9a618660405161034291815260200190565b60405180910390a450505050565b61035861057d565b6001600160a01b03821661038a57604051633283c86d60e21b81526001600160a01b038316600482015260240161021e565b6001600160a01b038216600081815260016020908152604091829020805460ff191685151590811790915591519182527f85ff5d10aa202e69f691155a2050fed648b2d67f85e35d1279510cc434023736910160405180910390a25050565b6103f161057d565b6103fb60006105b9565b565b3360009081526001602052604090205460ff1661042e5760405162a56d5360e61b815233600482015260240161021e565b8160000361044f5760405163162908e360e11b815260040160405180910390fd5b60008181526002602052604090205460ff168061047a575060008181526003602052604090205460ff165b1561049b5760405163c532c35d60e01b81526004810182905260240161021e565b6000818152600260205260409020805460ff191660011790556104be8383610609565b826001600160a01b0316817fd725e36531db02d8d15a3ef474ec75f5120d499c2d11fcae6bb1f481eb0b2028846040516104fa91815260200190565b60405180910390a3505050565b61050f61057d565b6001600160a01b03811661053957604051631e4fbdf760e01b81526000600482015260240161021e565b610542816105b9565b50565b6105796001600160a01b037f000000000000000000000000000000000000000000000000000000000000000016838361063e565b5050565b336105906000546001600160a01b031690565b6001600160a01b0316146103fb5760405163118cdaa760e01b815233600482015260240161021e565b600080546001600160a01b038381166001600160a01b0319831681178455604051919092169283917f8be0079c531659141344cd1fd0a4f28419497f9722a3daafe3b4186f6b6457e09190a35050565b6105796001600160a01b037f0000000000000000000000000000000000000000000000000000000000000000168330846106a2565b6040516001600160a01b0383811660248301526044820183905261069d91859182169063a9059cbb906064015b604051602081830303815290604052915060e01b6020820180516001600160e01b0383818316178352505050506106e1565b505050565b6040516001600160a01b0384811660248301528381166044830152606482018390526106db9186918216906323b872dd9060840161066b565b50505050565b600080602060008451602086016000885af180610704576040513d6000823e3d81fd5b50506000513d9150811561071c578060011415610729565b6001600160a01b0384163b155b156106db57604051635274afe760e01b81526001600160a01b038516600482015260240161021e565b60006020828403121561076457600080fd5b5035919050565b80356001600160a01b038116811461078257600080fd5b919050565b6000806000806080858703121561079d57600080fd5b6107a68561076b565b966020860135965060408601359560600135945092505050565b600080604083850312156107d357600080fd5b6107dc8361076b565b9150602083013580151581146107f157600080fd5b809150509250929050565b60008060006060848603121561081157600080fd5b61081a8461076b565b95602085013595506040909401359392505050565b60006020828403121561084157600080fd5b61084a8261076b565b939250505056fea2646970667358221220035a60b8323d39018de421a572b0ea7468f007cd3346573391786c7963e01eb464736f6c63430008160033",
  "devdoc": {
    "errors": {
      "InvalidAdapter(address)": [
        {
          "params": {
            "adapter": "Invalid adapter address."
          }
        }
      ],
      "InvalidToken(address)": [
        {
          "params": {
            "token": "Invalid token address."
          }
        }
      ],
      "OnlyAdapter(address)": [
        {
          "params": {
            "caller": "Unauthorized caller address."
          }
        }
      ],
      "OwnableInvalidOwner(address)": [
        {
          "details": "The owner is not a valid owner account. (eg. `address(0)`)"
        }
      ],
      "OwnableUnauthorizedAccount(address)": [
        {
          "details": "The caller account is not authorized to perform an operation."
        }
      ],
      "SafeERC20FailedOperation(address)": [
        {
          "details": "An operation with an ERC-20 token failed."
        }
      ],
      "TransferReplay(bytes32)": [
        {
          "params": {
            "transferId": "Replayed transfer identifier."
          }
        }
      ],
      "TransportReplay(bytes32)": [
        {
          "params": {
            "transportId": "Replayed transport identifier."
          }
        }
      ]
    },
    "events": {
      "AdapterSet(address,bool)": {
        "params": {
          "adapter": "Adapter address.",
          "enabled": "Whether the adapter is enabled."
        }
      },
      "BridgeIn(bytes32,bytes32,address,uint256)": {
        "params": {
          "amount": "Bridged token amount.",
          "to": "Recipient address on this chain.",
          "transferId": "Cross-chain transfer identifier.",
          "transportId": "Transport-level message identifier."
        }
      },
      "BridgeOut(bytes32,address,uint256)": {
        "params": {
          "amount": "Bridged token amount.",
          "from": "Source address on this chain.",
          "transferId": "Cross-chain transfer identifier."
        }
      }
    },
    "kind": "dev",
    "methods": {
      "bridgeIn(address,uint256,bytes32,bytes32)": {
        "params": {
          "_amount": "Token amount bridged in.",
          "_to": "Recipient of bridged tokens.",
          "_transferId": "Cross-chain transfer identifier.",
          "_transportId": "Transport-level message identifier."
        }
      },
      "bridgeOut(address,uint256,bytes32)": {
        "params": {
          "_amount": "Token amount bridged out.",
          "_from": "Address whose tokens are bridged out.",
          "_transferId": "Cross-chain transfer identifier."
        }
      },
      "constructor": {
        "params": {
          "_owner": "Owner allowed to manage adapters.",
          "_token": "Canonical ERC20 token address."
        }
      },
      "renounceOwnership()": {
        "details": "Leaves the contract without owner. It will not be possible to call `onlyOwner` functions. Can only be called by the current owner. NOTE: Renouncing ownership will leave the contract without an owner, thereby disabling any functionality that is only available to the owner."
      },
      "setAdapter(address,bool)": {
        "params": {
          "_adapter": "Adapter address to update.",
          "_enabled": "Whether the adapter is authorized."
        }
      },
      "transferOwnership(address)": {
        "details": "Transfers ownership of the contract to a new account (`newOwner`). Can only be called by the current owner."
      }
    },
    "stateVariables": {
      "token": {
        "return": "Canonical token address.",
        "returns": {
          "_0": "Canonical token address."
        }
      }
    },
    "version": 1
  },
  "userdoc": {
    "errors": {
      "InvalidAdapter(address)": [
        {
          "notice": "Thrown when attempting to configure a zero adapter address."
        }
      ],
      "InvalidAmount()": [
        {
          "notice": "Thrown when the bridged amount is zero."
        }
      ],
      "InvalidToken(address)": [
        {
          "notice": "Thrown when deploying with a zero canonical token address."
        }
      ],
      "OnlyAdapter(address)": [
        {
          "notice": "Thrown when a caller is not an authorized bridge adapter."
        }
      ],
      "TransferReplay(bytes32)": [
        {
          "notice": "Thrown when a transfer identifier has already been consumed."
        }
      ],
      "TransportReplay(bytes32)": [
        {
          "notice": "Thrown when a transport identifier has already been consumed."
        }
      ]
    },
    "events": {
      "AdapterSet(address,bool)": {
        "notice": "Emitted when an adapter authorization is updated."
      },
      "BridgeIn(bytes32,bytes32,address,uint256)": {
        "notice": "Emitted when an inbound bridge operation is processed."
      },
      "BridgeOut(bytes32,address,uint256)": {
        "notice": "Emitted when an outbound bridge operation is processed."
      }
    },
    "kind": "user",
    "methods": {
      "adapters(address)": {
        "notice": "Returns whether an adapter is authorized to call bridge methods."
      },
      "bridgeIn(address,uint256,bytes32,bytes32)": {
        "notice": "Processes inbound bridge flow and marks transfer and transport ids as consumed."
      },
      "bridgeOut(address,uint256,bytes32)": {
        "notice": "Processes outbound bridge flow and marks transfer id as consumed."
      },
      "constructor": {
        "notice": "Initializes canonical bridge core for an existing ERC20 token."
      },
      "inboundTransfers(bytes32)": {
        "notice": "Returns whether an inbound transfer identifier has been consumed."
      },
      "inboundTransportIds(bytes32)": {
        "notice": "Returns whether an inbound transport identifier has been consumed."
      },
      "outboundTransfers(bytes32)": {
        "notice": "Returns whether an outbound transfer identifier has been consumed."
      },
      "setAdapter(address,bool)": {
        "notice": "Enables or disables an adapter."
      },
      "token()": {
        "notice": "Returns the canonical ERC20 token locked by this core."
      }
    },
    "version": 1
  },
  "storageLayout": {
    "storage": [
      {
        "astId": 1581,
        "contract": "contracts/Token6022BridgeCoreCanonical.sol:Token6022BridgeCoreCanonical",
        "label": "_owner",
        "offset": 0,
        "slot": "0",
        "type": "t_address"
      },
      {
        "astId": 3088,
        "contract": "contracts/Token6022BridgeCoreCanonical.sol:Token6022BridgeCoreCanonical",
        "label": "adapters",
        "offset": 0,
        "slot": "1",
        "type": "t_mapping(t_address,t_bool)"
      },
      {
        "astId": 3092,
        "contract": "contracts/Token6022BridgeCoreCanonical.sol:Token6022BridgeCoreCanonical",
        "label": "outboundTransfers",
        "offset": 0,
        "slot": "2",
        "type": "t_mapping(t_bytes32,t_bool)"
      },
      {
        "astId": 3096,
        "contract": "contracts/Token6022BridgeCoreCanonical.sol:Token6022BridgeCoreCanonical",
        "label": "inboundTransfers",
        "offset": 0,
        "slot": "3",
        "type": "t_mapping(t_bytes32,t_bool)"
      },
      {
        "astId": 3100,
        "contract": "contracts/Token6022BridgeCoreCanonical.sol:Token6022BridgeCoreCanonical",
        "label": "inboundTransportIds",
        "offset": 0,
        "slot": "4",
        "type": "t_mapping(t_bytes32,t_bool)"
      }
    ],
    "types": {
      "t_address": {
        "encoding": "inplace",
        "label": "address",
        "numberOfBytes": "20"
      },
      "t_bool": {
        "encoding": "inplace",
        "label": "bool",
        "numberOfBytes": "1"
      },
      "t_bytes32": {
        "encoding": "inplace",
        "label": "bytes32",
        "numberOfBytes": "32"
      },
      "t_mapping(t_address,t_bool)": {
        "encoding": "mapping",
        "key": "t_address",
        "label": "mapping(address => bool)",
        "numberOfBytes": "32",
        "value": "t_bool"
      },
      "t_mapping(t_bytes32,t_bool)": {
        "encoding": "mapping",
        "key": "t_bytes32",
        "label": "mapping(bytes32 => bool)",
        "numberOfBytes": "32",
        "value": "t_bool"
      }
    }
  }
}