{
  "address": "0xe73780AA1bbd1d1F8C83C5beAe5E9bCb575fDB17",
  "abi": [
    {
      "inputs": [
        {
          "internalType": "address",
          "name": "_core",
          "type": "address"
        },
        {
          "internalType": "address",
          "name": "_endpoint",
          "type": "address"
        }
      ],
      "stateMutability": "nonpayable",
      "type": "constructor"
    },
    {
      "inputs": [
        {
          "internalType": "address",
          "name": "core",
          "type": "address"
        }
      ],
      "name": "InvalidCore",
      "type": "error"
    },
    {
      "inputs": [],
      "name": "InvalidDelegate",
      "type": "error"
    },
    {
      "inputs": [],
      "name": "InvalidEndpointCall",
      "type": "error"
    },
    {
      "inputs": [
        {
          "internalType": "uint256",
          "name": "supplied",
          "type": "uint256"
        },
        {
          "internalType": "uint256",
          "name": "required",
          "type": "uint256"
        }
      ],
      "name": "InvalidNativeFee",
      "type": "error"
    },
    {
      "inputs": [
        {
          "internalType": "address",
          "name": "recipient",
          "type": "address"
        }
      ],
      "name": "InvalidRecipient",
      "type": "error"
    },
    {
      "inputs": [],
      "name": "LzTokenUnavailable",
      "type": "error"
    },
    {
      "inputs": [
        {
          "internalType": "uint32",
          "name": "dstEid",
          "type": "uint32"
        }
      ],
      "name": "MissingLzSendOptions",
      "type": "error"
    },
    {
      "inputs": [
        {
          "internalType": "uint32",
          "name": "eid",
          "type": "uint32"
        }
      ],
      "name": "NoPeer",
      "type": "error"
    },
    {
      "inputs": [
        {
          "internalType": "uint256",
          "name": "msgValue",
          "type": "uint256"
        }
      ],
      "name": "NotEnoughNative",
      "type": "error"
    },
    {
      "inputs": [
        {
          "internalType": "address",
          "name": "caller",
          "type": "address"
        },
        {
          "internalType": "address",
          "name": "expectedOwner",
          "type": "address"
        }
      ],
      "name": "OnlyCoreOwner",
      "type": "error"
    },
    {
      "inputs": [
        {
          "internalType": "address",
          "name": "addr",
          "type": "address"
        }
      ],
      "name": "OnlyEndpoint",
      "type": "error"
    },
    {
      "inputs": [
        {
          "internalType": "uint32",
          "name": "eid",
          "type": "uint32"
        },
        {
          "internalType": "bytes32",
          "name": "sender",
          "type": "bytes32"
        }
      ],
      "name": "OnlyPeer",
      "type": "error"
    },
    {
      "inputs": [
        {
          "internalType": "address",
          "name": "owner",
          "type": "address"
        }
      ],
      "name": "OwnableInvalidOwner",
      "type": "error"
    },
    {
      "inputs": [
        {
          "internalType": "address",
          "name": "account",
          "type": "address"
        }
      ],
      "name": "OwnableUnauthorizedAccount",
      "type": "error"
    },
    {
      "inputs": [
        {
          "internalType": "address",
          "name": "token",
          "type": "address"
        }
      ],
      "name": "SafeERC20FailedOperation",
      "type": "error"
    },
    {
      "anonymous": false,
      "inputs": [
        {
          "indexed": true,
          "internalType": "uint32",
          "name": "srcEid",
          "type": "uint32"
        },
        {
          "indexed": true,
          "internalType": "bytes32",
          "name": "guid",
          "type": "bytes32"
        },
        {
          "indexed": true,
          "internalType": "bytes32",
          "name": "transferId",
          "type": "bytes32"
        },
        {
          "indexed": false,
          "internalType": "address",
          "name": "to",
          "type": "address"
        },
        {
          "indexed": false,
          "internalType": "uint256",
          "name": "amount",
          "type": "uint256"
        }
      ],
      "name": "LzReceive",
      "type": "event"
    },
    {
      "anonymous": false,
      "inputs": [
        {
          "indexed": true,
          "internalType": "uint32",
          "name": "dstEid",
          "type": "uint32"
        },
        {
          "indexed": true,
          "internalType": "bytes32",
          "name": "guid",
          "type": "bytes32"
        },
        {
          "indexed": true,
          "internalType": "bytes32",
          "name": "transferId",
          "type": "bytes32"
        },
        {
          "indexed": false,
          "internalType": "address",
          "name": "from",
          "type": "address"
        },
        {
          "indexed": false,
          "internalType": "address",
          "name": "to",
          "type": "address"
        },
        {
          "indexed": false,
          "internalType": "uint256",
          "name": "amount",
          "type": "uint256"
        }
      ],
      "name": "LzSend",
      "type": "event"
    },
    {
      "anonymous": false,
      "inputs": [
        {
          "indexed": true,
          "internalType": "uint32",
          "name": "dstEid",
          "type": "uint32"
        },
        {
          "indexed": false,
          "internalType": "bytes",
          "name": "options",
          "type": "bytes"
        }
      ],
      "name": "LzSendOptionsSet",
      "type": "event"
    },
    {
      "anonymous": false,
      "inputs": [
        {
          "indexed": true,
          "internalType": "address",
          "name": "previousOwner",
          "type": "address"
        },
        {
          "indexed": true,
          "internalType": "address",
          "name": "newOwner",
          "type": "address"
        }
      ],
      "name": "OwnershipTransferred",
      "type": "event"
    },
    {
      "anonymous": false,
      "inputs": [
        {
          "indexed": false,
          "internalType": "uint32",
          "name": "eid",
          "type": "uint32"
        },
        {
          "indexed": false,
          "internalType": "bytes32",
          "name": "peer",
          "type": "bytes32"
        }
      ],
      "name": "PeerSet",
      "type": "event"
    },
    {
      "inputs": [
        {
          "components": [
            {
              "internalType": "uint32",
              "name": "srcEid",
              "type": "uint32"
            },
            {
              "internalType": "bytes32",
              "name": "sender",
              "type": "bytes32"
            },
            {
              "internalType": "uint64",
              "name": "nonce",
              "type": "uint64"
            }
          ],
          "internalType": "struct Origin",
          "name": "origin",
          "type": "tuple"
        }
      ],
      "name": "allowInitializePath",
      "outputs": [
        {
          "internalType": "bool",
          "name": "",
          "type": "bool"
        }
      ],
      "stateMutability": "view",
      "type": "function"
    },
    {
      "inputs": [],
      "name": "core",
      "outputs": [
        {
          "internalType": "contract IToken6022BridgeCore",
          "name": "",
          "type": "address"
        }
      ],
      "stateMutability": "view",
      "type": "function"
    },
    {
      "inputs": [],
      "name": "endpoint",
      "outputs": [
        {
          "internalType": "contract ILayerZeroEndpointV2",
          "name": "",
          "type": "address"
        }
      ],
      "stateMutability": "view",
      "type": "function"
    },
    {
      "inputs": [
        {
          "components": [
            {
              "internalType": "uint32",
              "name": "srcEid",
              "type": "uint32"
            },
            {
              "internalType": "bytes32",
              "name": "sender",
              "type": "bytes32"
            },
            {
              "internalType": "uint64",
              "name": "nonce",
              "type": "uint64"
            }
          ],
          "internalType": "struct Origin",
          "name": "",
          "type": "tuple"
        },
        {
          "internalType": "bytes",
          "name": "",
          "type": "bytes"
        },
        {
          "internalType": "address",
          "name": "_sender",
          "type": "address"
        }
      ],
      "name": "isComposeMsgSender",
      "outputs": [
        {
          "internalType": "bool",
          "name": "",
          "type": "bool"
        }
      ],
      "stateMutability": "view",
      "type": "function"
    },
    {
      "inputs": [
        {
          "components": [
            {
              "internalType": "uint32",
              "name": "srcEid",
              "type": "uint32"
            },
            {
              "internalType": "bytes32",
              "name": "sender",
              "type": "bytes32"
            },
            {
              "internalType": "uint64",
              "name": "nonce",
              "type": "uint64"
            }
          ],
          "internalType": "struct Origin",
          "name": "_origin",
          "type": "tuple"
        },
        {
          "internalType": "bytes32",
          "name": "_guid",
          "type": "bytes32"
        },
        {
          "internalType": "bytes",
          "name": "_message",
          "type": "bytes"
        },
        {
          "internalType": "address",
          "name": "_executor",
          "type": "address"
        },
        {
          "internalType": "bytes",
          "name": "_extraData",
          "type": "bytes"
        }
      ],
      "name": "lzReceive",
      "outputs": [],
      "stateMutability": "payable",
      "type": "function"
    },
    {
      "inputs": [
        {
          "internalType": "uint32",
          "name": "dstEid",
          "type": "uint32"
        }
      ],
      "name": "lzSendOptions",
      "outputs": [
        {
          "internalType": "bytes",
          "name": "options",
          "type": "bytes"
        }
      ],
      "stateMutability": "view",
      "type": "function"
    },
    {
      "inputs": [
        {
          "internalType": "uint32",
          "name": "",
          "type": "uint32"
        },
        {
          "internalType": "bytes32",
          "name": "",
          "type": "bytes32"
        }
      ],
      "name": "nextNonce",
      "outputs": [
        {
          "internalType": "uint64",
          "name": "nonce",
          "type": "uint64"
        }
      ],
      "stateMutability": "view",
      "type": "function"
    },
    {
      "inputs": [],
      "name": "oAppVersion",
      "outputs": [
        {
          "internalType": "uint64",
          "name": "senderVersion",
          "type": "uint64"
        },
        {
          "internalType": "uint64",
          "name": "receiverVersion",
          "type": "uint64"
        }
      ],
      "stateMutability": "pure",
      "type": "function"
    },
    {
      "inputs": [],
      "name": "owner",
      "outputs": [
        {
          "internalType": "address",
          "name": "",
          "type": "address"
        }
      ],
      "stateMutability": "view",
      "type": "function"
    },
    {
      "inputs": [
        {
          "internalType": "uint32",
          "name": "eid",
          "type": "uint32"
        }
      ],
      "name": "peers",
      "outputs": [
        {
          "internalType": "bytes32",
          "name": "peer",
          "type": "bytes32"
        }
      ],
      "stateMutability": "view",
      "type": "function"
    },
    {
      "inputs": [
        {
          "internalType": "uint32",
          "name": "_dstEid",
          "type": "uint32"
        },
        {
          "internalType": "address",
          "name": "_to",
          "type": "address"
        },
        {
          "internalType": "uint256",
          "name": "_amount",
          "type": "uint256"
        },
        {
          "internalType": "bytes32",
          "name": "_userTransferId",
          "type": "bytes32"
        },
        {
          "internalType": "bytes",
          "name": "_options",
          "type": "bytes"
        },
        {
          "internalType": "bool",
          "name": "_payInLzToken",
          "type": "bool"
        }
      ],
      "name": "quoteLzSend",
      "outputs": [
        {
          "components": [
            {
              "internalType": "uint256",
              "name": "nativeFee",
              "type": "uint256"
            },
            {
              "internalType": "uint256",
              "name": "lzTokenFee",
              "type": "uint256"
            }
          ],
          "internalType": "struct MessagingFee",
          "name": "fee",
          "type": "tuple"
        }
      ],
      "stateMutability": "view",
      "type": "function"
    },
    {
      "inputs": [],
      "name": "renounceOwnership",
      "outputs": [],
      "stateMutability": "nonpayable",
      "type": "function"
    },
    {
      "inputs": [
        {
          "internalType": "uint32",
          "name": "_dstEid",
          "type": "uint32"
        },
        {
          "internalType": "address",
          "name": "_to",
          "type": "address"
        },
        {
          "internalType": "uint256",
          "name": "_amount",
          "type": "uint256"
        },
        {
          "internalType": "bytes32",
          "name": "_userTransferId",
          "type": "bytes32"
        },
        {
          "internalType": "bytes",
          "name": "_options",
          "type": "bytes"
        }
      ],
      "name": "sendWithLz",
      "outputs": [
        {
          "components": [
            {
              "internalType": "bytes32",
              "name": "guid",
              "type": "bytes32"
            },
            {
              "internalType": "uint64",
              "name": "nonce",
              "type": "uint64"
            },
            {
              "components": [
                {
                  "internalType": "uint256",
                  "name": "nativeFee",
                  "type": "uint256"
                },
                {
                  "internalType": "uint256",
                  "name": "lzTokenFee",
                  "type": "uint256"
                }
              ],
              "internalType": "struct MessagingFee",
              "name": "fee",
              "type": "tuple"
            }
          ],
          "internalType": "struct MessagingReceipt",
          "name": "receipt",
          "type": "tuple"
        }
      ],
      "stateMutability": "payable",
      "type": "function"
    },
    {
      "inputs": [
        {
          "internalType": "address",
          "name": "_delegate",
          "type": "address"
        }
      ],
      "name": "setDelegate",
      "outputs": [],
      "stateMutability": "nonpayable",
      "type": "function"
    },
    {
      "inputs": [
        {
          "internalType": "uint32",
          "name": "_dstEid",
          "type": "uint32"
        },
        {
          "internalType": "bytes",
          "name": "_options",
          "type": "bytes"
        }
      ],
      "name": "setLzSendOptions",
      "outputs": [],
      "stateMutability": "nonpayable",
      "type": "function"
    },
    {
      "inputs": [
        {
          "internalType": "uint32",
          "name": "_eid",
          "type": "uint32"
        },
        {
          "internalType": "bytes32",
          "name": "_peer",
          "type": "bytes32"
        }
      ],
      "name": "setPeer",
      "outputs": [],
      "stateMutability": "nonpayable",
      "type": "function"
    },
    {
      "inputs": [
        {
          "internalType": "address",
          "name": "newOwner",
          "type": "address"
        }
      ],
      "name": "transferOwnership",
      "outputs": [],
      "stateMutability": "nonpayable",
      "type": "function"
    }
  ],
  "transactionHash": "0x6fe2eb3f71c00f988f88d41f6c6fd31ca549d02b7d80c17e9fbd3a4e33785798",
  "args": [
    "0xbB2CEbf252EaDdf1674Cc7C458FCf4877704820F",
    "0x6EDCE65403992e310A62460808c4b910D972f10f"
  ],
  "numDeployments": 1,
  "solcInputHash": "2e8986dddb3fccb2acbc28853ed4dd51",
  "bytecode": "0x60c06040523480156200001157600080fd5b5060405162001c1f38038062001c1f8339810160408190526200003491620001b5565b8030818180806200006057604051631e4fbdf760e01b8152600060048201526024015b60405180910390fd5b6200006b8162000148565b506001600160a01b0380831660805281166200009a57604051632d618d8160e21b815260040160405180910390fd5b60805160405163ca5eb5e160e01b81526001600160a01b0383811660048301529091169063ca5eb5e190602401600060405180830381600087803b158015620000e257600080fd5b505af1158015620000f7573d6000803e3d6000fd5b5050506001600160a01b0387169450620001359350505050576040516332799b9d60e11b81526001600160a01b038316600482015260240162000057565b506001600160a01b031660a052620001ed565b600080546001600160a01b038381166001600160a01b0319831681178455604051919092169283917f8be0079c531659141344cd1fd0a4f28419497f9722a3daafe3b4186f6b6457e09190a35050565b80516001600160a01b0381168114620001b057600080fd5b919050565b60008060408385031215620001c957600080fd5b620001d48362000198565b9150620001e46020840162000198565b90509250929050565b60805160a0516119c6620002596000396000818161035d0152818161048301528181610779015281816108ef0152610b0e01526000818161019e015281816103c10152818161088c01528181610e3801528181610f360152818161103a01526110f301526119c66000f3fe6080604052600436106100fe5760003560e01c8063848221f911610095578063ca5eb5e111610064578063ca5eb5e11461030b578063cd8e0d371461032b578063f2f4eb261461034b578063f2fde38b1461037f578063ff7bd03d1461039f57600080fd5b8063848221f9146102655780638da5cb5b14610292578063bb0b6a53146102b0578063c4d364a9146102eb57600080fd5b80635e280f11116100d15780635e280f111461018c578063715018a6146101d85780637d25a05e146101ed57806382413eac1461022657600080fd5b806313137d651461010357806317442b70146101185780633400288b1461013f578063481604811461015f575b600080fd5b6101166101113660046112ab565b6103bf565b005b34801561012457600080fd5b50604080516001815260026020820152015b60405180910390f35b34801561014b57600080fd5b5061011661015a366004611364565b61047f565b34801561016b57600080fd5b5061017f61017a36600461138e565b61054e565b60405161013691906113ef565b34801561019857600080fd5b506101c07f000000000000000000000000000000000000000000000000000000000000000081565b6040516001600160a01b039091168152602001610136565b3480156101e457600080fd5b506101166105e8565b3480156101f957600080fd5b5061020d610208366004611364565b6105fc565b60405167ffffffffffffffff9091168152602001610136565b34801561023257600080fd5b50610255610241366004611402565b6001600160a01b0381163014949350505050565b6040519015158152602001610136565b34801561027157600080fd5b50610285610280366004611469565b610605565b60405161013691906114fc565b34801561029e57600080fd5b506000546001600160a01b03166101c0565b3480156102bc57600080fd5b506102dd6102cb36600461138e565b60016020526000908152604090205481565b604051908152602001610136565b6102fe6102f9366004611513565b610688565b604051610136919061158d565b34801561031757600080fd5b506101166103263660046115d0565b610865565b34801561033757600080fd5b506101166103463660046115ed565b6108eb565b34801561035757600080fd5b506101c07f000000000000000000000000000000000000000000000000000000000000000081565b34801561038b57600080fd5b5061011661039a3660046115d0565b610a12565b3480156103ab57600080fd5b506102556103ba366004611640565b610a50565b7f00000000000000000000000000000000000000000000000000000000000000006001600160a01b0316331461040f576040516391ac5e4f60e01b81523360048201526024015b60405180910390fd5b6020870180359061042990610424908a61138e565b610a86565b146104675761043b602088018861138e565b60405163309afaf360e21b815263ffffffff909116600482015260208801356024820152604401610406565b61047687878787878787610ac2565b50505050505050565b60007f00000000000000000000000000000000000000000000000000000000000000006001600160a01b0316638da5cb5b6040518163ffffffff1660e01b8152600401602060405180830381865afa1580156104df573d6000803e3d6000fd5b505050506040513d601f19601f82011682018060405250810190610503919061165c565b9050336001600160a01b0382161461053f5760405163325fa6a760e11b81523360048201526001600160a01b0382166024820152604401610406565b6105498383610bd6565b505050565b6002602052600090815260409020805461056790611679565b80601f016020809104026020016040519081016040528092919081815260200182805461059390611679565b80156105e05780601f106105b5576101008083540402835291602001916105e0565b820191906000526020600020905b8154815290600101906020018083116105c357829003601f168201915b505050505081565b6105f0610c2b565b6105fa6000610c58565b565b60005b92915050565b60408051808201909152600080825260208201526000610628338a8a8a8a610ca8565b60408051602081018390526001600160a01b038b168183015260608082018b9052825180830390910181526080909101909152909150600061066b8b8888610d07565b90506106798b838388610e22565b9b9a5050505050505050505050565b6106906111ed565b6001600160a01b0386166106c257604051630bc2c5df60e11b81526001600160a01b0387166004820152602401610406565b60006106d13389898989610ca8565b60408051602081018390526001600160a01b038a168183015260608082018a905282518083039091018152608090910190915290915060006107148a8787610d07565b905060006107258b84846000610e22565b8051909150341015610756578051604051630a73cae960e21b81523460048201526024810191909152604401610406565b604051639d10f39d60e01b8152336004820152602481018a9052604481018590527f00000000000000000000000000000000000000000000000000000000000000006001600160a01b031690639d10f39d90606401600060405180830381600087803b1580156107c557600080fd5b505af11580156107d9573d6000803e3d6000fd5b505050506107ff8b84846040518060400160405280348152602001600081525033610f03565b8051604080513381526001600160a01b038e1660208201529081018c9052919650859163ffffffff8e16907f5d0685868f21989925b030b112ee5d6e9cc59460b24877c6da034dc08cd8c7cc9060600160405180910390a4505050509695505050505050565b61086d610c2b565b60405163ca5eb5e160e01b81526001600160a01b0382811660048301527f0000000000000000000000000000000000000000000000000000000000000000169063ca5eb5e190602401600060405180830381600087803b1580156108d057600080fd5b505af11580156108e4573d6000803e3d6000fd5b5050505050565b60007f00000000000000000000000000000000000000000000000000000000000000006001600160a01b0316638da5cb5b6040518163ffffffff1660e01b8152600401602060405180830381865afa15801561094b573d6000803e3d6000fd5b505050506040513d601f19601f8201168201806040525081019061096f919061165c565b9050336001600160a01b038216146109ab5760405163325fa6a760e11b81523360048201526001600160a01b0382166024820152604401610406565b63ffffffff841660009081526002602052604090206109cb838583611713565b508363ffffffff167fb2b4ca2de443763c770d32f33d166ab4b5aa1da6feac003c61f3a4c6d791286f8484604051610a049291906117d3565b60405180910390a250505050565b610a1a610c2b565b6001600160a01b038116610a4457604051631e4fbdf760e01b815260006004820152602401610406565b610a4d81610c58565b50565b6000602082018035906001908390610a68908661138e565b63ffffffff1681526020810191909152604001600020541492915050565b63ffffffff8116600090815260016020526040812054806105ff5760405163f6ff4fb760e01b815263ffffffff84166004820152602401610406565b60008080610ad287890189611802565b6040516310b7639160e11b81526001600160a01b0383811660048301526024820183905260448201859052606482018e905293965091945092507f00000000000000000000000000000000000000000000000000000000000000009091169063216ec72290608401600060405180830381600087803b158015610b5457600080fd5b505af1158015610b68573d6000803e3d6000fd5b508592508b9150610b7e905060208d018d61138e565b604080516001600160a01b03871681526020810186905263ffffffff92909216917f46fdbf2595b4788b0194aa2e947b30e9266121443c06ad377d280eee83b391d1910160405180910390a450505050505050505050565b63ffffffff8216600081815260016020908152604091829020849055815192835282018390527f238399d427b947898edb290f5ff0f9109849b1c3ba196a42e35f00c50a54b98b910160405180910390a15050565b6000546001600160a01b031633146105fa5760405163118cdaa760e01b8152336004820152602401610406565b600080546001600160a01b038381166001600160a01b0319831681178455604051919092169283917f8be0079c531659141344cd1fd0a4f28419497f9722a3daafe3b4186f6b6457e09190a35050565b60408051306020808301919091526001600160a01b039788168284015263ffffffff96909616606082015293909516608084015260a083019190915260c0808301919091528351808303909101815260e0909101909252815191012090565b60606000829003610db75763ffffffff841660009081526002602052604090208054610d3290611679565b80601f0160208091040260200160405190810160405280929190818152602001828054610d5e90611679565b8015610dab5780601f10610d8057610100808354040283529160200191610dab565b820191906000526020600020905b815481529060010190602001808311610d8e57829003601f168201915b50505050509050610df1565b82828080601f0160208091040260200160405190810160405280939291908181526020018383808284376000920191909152509293505050505b8051600003610e1b576040516374c3180360e11b815263ffffffff85166004820152602401610406565b9392505050565b60408051808201909152600080825260208201527f00000000000000000000000000000000000000000000000000000000000000006001600160a01b031663ddc28c586040518060a001604052808863ffffffff168152602001610e8589610a86565b8152602001878152602001868152602001851515815250306040518363ffffffff1660e01b8152600401610eba92919061183a565b6040805180830381865afa158015610ed6573d6000803e3d6000fd5b505050506040513d601f19601f82011682018060405250810190610efa9190611902565b95945050505050565b610f0b6111ed565b6000610f1a846000015161100e565b602085015190915015610f3457610f348460200151611036565b7f00000000000000000000000000000000000000000000000000000000000000006001600160a01b0316632637a450826040518060a001604052808b63ffffffff168152602001610f848c610a86565b81526020018a815260200189815260200160008960200151111515815250866040518463ffffffff1660e01b8152600401610fc092919061183a565b60806040518083038185885af1158015610fde573d6000803e3d6000fd5b50505050506040513d601f19601f82011682018060405250810190611003919061191e565b979650505050505050565b6000813414611032576040516304fb820960e51b8152346004820152602401610406565b5090565b60007f00000000000000000000000000000000000000000000000000000000000000006001600160a01b031663e4fe1d946040518163ffffffff1660e01b8152600401602060405180830381865afa158015611096573d6000803e3d6000fd5b505050506040513d601f19601f820116820180604052508101906110ba919061165c565b90506001600160a01b0381166110e3576040516329b99a9560e11b815260040160405180910390fd5b6111186001600160a01b038216337f00000000000000000000000000000000000000000000000000000000000000008561111c565b5050565b604080516001600160a01b0385811660248301528416604482015260648082018490528251808303909101815260849091019091526020810180516001600160e01b03166323b872dd60e01b17905261117690859061117c565b50505050565b600080602060008451602086016000885af18061119f576040513d6000823e3d81fd5b50506000513d915081156111b75780600114156111c4565b6001600160a01b0384163b155b1561117657604051635274afe760e01b81526001600160a01b0385166004820152602401610406565b604051806060016040528060008019168152602001600067ffffffffffffffff168152602001611230604051806040016040528060008152602001600081525090565b905290565b60006060828403121561124757600080fd5b50919050565b60008083601f84011261125f57600080fd5b50813567ffffffffffffffff81111561127757600080fd5b60208301915083602082850101111561128f57600080fd5b9250929050565b6001600160a01b0381168114610a4d57600080fd5b600080600080600080600060e0888a0312156112c657600080fd5b6112d08989611235565b965060608801359550608088013567ffffffffffffffff808211156112f457600080fd5b6113008b838c0161124d565b909750955060a08a0135915061131582611296565b90935060c0890135908082111561132b57600080fd5b506113388a828b0161124d565b989b979a50959850939692959293505050565b803563ffffffff8116811461135f57600080fd5b919050565b6000806040838503121561137757600080fd5b6113808361134b565b946020939093013593505050565b6000602082840312156113a057600080fd5b610e1b8261134b565b6000815180845260005b818110156113cf576020818501810151868301820152016113b3565b506000602082860101526020601f19601f83011685010191505092915050565b602081526000610e1b60208301846113a9565b60008060008060a0858703121561141857600080fd5b6114228686611235565b9350606085013567ffffffffffffffff81111561143e57600080fd5b61144a8782880161124d565b909450925050608085013561145e81611296565b939692955090935050565b600080600080600080600060c0888a03121561148457600080fd5b61148d8861134b565b9650602088013561149d81611296565b95506040880135945060608801359350608088013567ffffffffffffffff8111156114c757600080fd5b6114d38a828b0161124d565b90945092505060a088013580151581146114ec57600080fd5b8091505092959891949750929550565b8151815260208083015190820152604081016105ff565b60008060008060008060a0878903121561152c57600080fd5b6115358761134b565b9550602087013561154581611296565b94506040870135935060608701359250608087013567ffffffffffffffff81111561156f57600080fd5b61157b89828a0161124d565b979a9699509497509295939492505050565b60006080820190508251825267ffffffffffffffff602084015116602083015260408301516115c9604084018280518252602090810151910152565b5092915050565b6000602082840312156115e257600080fd5b8135610e1b81611296565b60008060006040848603121561160257600080fd5b61160b8461134b565b9250602084013567ffffffffffffffff81111561162757600080fd5b6116338682870161124d565b9497909650939450505050565b60006060828403121561165257600080fd5b610e1b8383611235565b60006020828403121561166e57600080fd5b8151610e1b81611296565b600181811c9082168061168d57607f821691505b60208210810361124757634e487b7160e01b600052602260045260246000fd5b634e487b7160e01b600052604160045260246000fd5b601f821115610549576000816000526020600020601f850160051c810160208610156116ec5750805b601f850160051c820191505b8181101561170b578281556001016116f8565b505050505050565b67ffffffffffffffff83111561172b5761172b6116ad565b61173f836117398354611679565b836116c3565b6000601f841160018114611773576000851561175b5750838201355b600019600387901b1c1916600186901b1783556108e4565b600083815260209020601f19861690835b828110156117a45786850135825560209485019460019092019101611784565b50868210156117c15760001960f88860031b161c19848701351681555b505060018560011b0183555050505050565b60208152816020820152818360408301376000818301604090810191909152601f909201601f19160101919050565b60008060006060848603121561181757600080fd5b83359250602084013561182981611296565b929592945050506040919091013590565b6040815263ffffffff8351166040820152602083015160608201526000604084015160a0608084015261187060e08401826113a9565b90506060850151603f198483030160a085015261188d82826113a9565b60809690960151151560c08501525050506001600160a01b039190911660209091015290565b6000604082840312156118c557600080fd5b6040516040810181811067ffffffffffffffff821117156118e8576118e86116ad565b604052825181526020928301519281019290925250919050565b60006040828403121561191457600080fd5b610e1b83836118b3565b60006080828403121561193057600080fd5b6040516060810167ffffffffffffffff8282108183111715611954576119546116ad565b816040528451835260208501519150808216821461197157600080fd5b50602082015261198484604085016118b3565b6040820152939250505056fea26469706673582212202f0faf6556d84b0374eb74425f68d0e7c981b6766f4a99d9c27739c161551dca64736f6c63430008160033",
  "devdoc": {
    "errors": {
      "InvalidCore(address)": [
        {
          "params": {
            "core": "Invalid core address."
          }
        }
      ],
      "InvalidNativeFee(uint256,uint256)": [
        {
          "params": {
            "required": "Required native fee.",
            "supplied": "Native value provided by caller."
          }
        }
      ],
      "InvalidRecipient(address)": [
        {
          "params": {
            "recipient": "Invalid recipient address."
          }
        }
      ],
      "MissingLzSendOptions(uint32)": [
        {
          "params": {
            "dstEid": "LayerZero destination endpoint id."
          }
        }
      ],
      "OnlyCoreOwner(address,address)": [
        {
          "params": {
            "caller": "Unauthorized caller.",
            "expectedOwner": "Current bridge core owner."
          }
        }
      ],
      "OwnableInvalidOwner(address)": [
        {
          "details": "The owner is not a valid owner account. (eg. `address(0)`)"
        }
      ],
      "OwnableUnauthorizedAccount(address)": [
        {
          "details": "The caller account is not authorized to perform an operation."
        }
      ],
      "SafeERC20FailedOperation(address)": [
        {
          "details": "An operation with an ERC-20 token failed."
        }
      ]
    },
    "events": {
      "LzReceive(uint32,bytes32,bytes32,address,uint256)": {
        "params": {
          "amount": "Bridged token amount.",
          "guid": "LayerZero message guid.",
          "srcEid": "Source LayerZero endpoint id.",
          "to": "Destination recipient address on this chain.",
          "transferId": "Cross-chain transfer identifier."
        }
      },
      "LzSend(uint32,bytes32,bytes32,address,address,uint256)": {
        "params": {
          "amount": "Bridged token amount.",
          "dstEid": "Destination LayerZero endpoint id.",
          "from": "Source address on this chain.",
          "guid": "LayerZero message guid.",
          "to": "Destination recipient address.",
          "transferId": "Cross-chain transfer identifier."
        }
      },
      "LzSendOptionsSet(uint32,bytes)": {
        "params": {
          "dstEid": "Destination LayerZero endpoint id.",
          "options": "Encoded LayerZero execution options."
        }
      }
    },
    "kind": "dev",
    "methods": {
      "allowInitializePath((uint32,bytes32,uint64))": {
        "details": "This indicates to the endpoint that the OApp has enabled msgs for this particular path to be received.This defaults to assuming if a peer has been set, its initialized. Can be overridden by the OApp if there is other logic to determine this.",
        "params": {
          "origin": "The origin information containing the source endpoint and sender address."
        },
        "returns": {
          "_0": "Whether the path has been initialized."
        }
      },
      "constructor": {
        "params": {
          "_core": "Bridge core contract.",
          "_endpoint": "LayerZero endpoint address."
        }
      },
      "isComposeMsgSender((uint32,bytes32,uint64),bytes,address)": {
        "details": "_origin The origin information containing the source endpoint and sender address.  - srcEid: The source chain endpoint ID.  - sender: The sender address on the src chain.  - nonce: The nonce of the message._message The lzReceive payload.Applications can optionally choose to implement separate composeMsg senders that are NOT the bridging layer.The default sender IS the OAppReceiver implementer.",
        "params": {
          "_sender": "The sender address."
        },
        "returns": {
          "_0": "isSender Is a valid sender."
        }
      },
      "lzReceive((uint32,bytes32,uint64),bytes32,bytes,address,bytes)": {
        "details": "Entry point for receiving messages or packets from the endpoint.Entry point for receiving msg/packet from the LayerZero endpoint.",
        "params": {
          "_executor": "The address of the executor for the received message.",
          "_extraData": "Additional arbitrary data provided by the corresponding executor.",
          "_guid": "The unique identifier for the received LayerZero message.",
          "_message": "The payload of the received message.",
          "_origin": "The origin information containing the source endpoint and sender address.  - srcEid: The source chain endpoint ID.  - sender: The sender address on the src chain.  - nonce: The nonce of the message."
        }
      },
      "nextNonce(uint32,bytes32)": {
        "details": "_srcEid The source endpoint ID._sender The sender address.The path nonce starts from 1. If 0 is returned it means that there is NO nonce ordered enforcement.Is required by the off-chain executor to determine the OApp expects msg execution is ordered.This is also enforced by the OApp.By default this is NOT enabled. ie. nextNonce is hardcoded to return 0.",
        "returns": {
          "nonce": "The next nonce."
        }
      },
      "oAppVersion()": {
        "returns": {
          "receiverVersion": "The version of the OAppReceiver.sol implementation.",
          "senderVersion": "The version of the OAppSender.sol implementation."
        }
      },
      "owner()": {
        "details": "Returns the address of the current owner."
      },
      "quoteLzSend(uint32,address,uint256,bytes32,bytes,bool)": {
        "params": {
          "_amount": "Token amount to bridge.",
          "_dstEid": "LayerZero destination endpoint id.",
          "_options": "LayerZero execution options; empty uses stored defaults and reverts when unresolved.",
          "_payInLzToken": "True to quote in LZ token, false for native fee.",
          "_to": "Recipient on destination chain.",
          "_userTransferId": "User-provided transfer identifier entropy."
        },
        "returns": {
          "fee": "LayerZero fee quote."
        }
      },
      "renounceOwnership()": {
        "details": "Leaves the contract without owner. It will not be possible to call `onlyOwner` functions. Can only be called by the current owner. NOTE: Renouncing ownership will leave the contract without an owner, thereby disabling any functionality that is only available to the owner."
      },
      "sendWithLz(uint32,address,uint256,bytes32,bytes)": {
        "params": {
          "_amount": "Token amount to bridge.",
          "_dstEid": "LayerZero destination endpoint id.",
          "_options": "LayerZero execution options; empty uses stored defaults and reverts when unresolved.",
          "_to": "Recipient on destination chain.",
          "_userTransferId": "User-provided transfer identifier entropy."
        },
        "returns": {
          "receipt": "LayerZero messaging receipt."
        }
      },
      "setDelegate(address)": {
        "details": "Only the owner/admin of the OApp can call this function.Provides the ability for a delegate to set configs, on behalf of the OApp, directly on the Endpoint contract.",
        "params": {
          "_delegate": "The address of the delegate to be set."
        }
      },
      "setLzSendOptions(uint32,bytes)": {
        "params": {
          "_dstEid": "LayerZero destination endpoint id.",
          "_options": "Encoded LayerZero execution options."
        }
      },
      "transferOwnership(address)": {
        "details": "Transfers ownership of the contract to a new account (`newOwner`). Can only be called by the current owner."
      }
    },
    "stateVariables": {
      "core": {
        "return": "Bridge core contract.",
        "returns": {
          "_0": "Bridge core contract."
        }
      },
      "lzSendOptions": {
        "params": {
          "dstEid": "LayerZero destination endpoint id."
        },
        "return": "options Encoded LayerZero execution options.",
        "returns": {
          "options": "Encoded LayerZero execution options."
        }
      }
    },
    "version": 1
  },
  "userdoc": {
    "errors": {
      "InvalidCore(address)": [
        {
          "notice": "Thrown when deploying with a zero core address."
        }
      ],
      "InvalidNativeFee(uint256,uint256)": [
        {
          "notice": "Thrown when supplied native fee is below required LayerZero fee."
        }
      ],
      "InvalidRecipient(address)": [
        {
          "notice": "Thrown when destination recipient is invalid."
        }
      ],
      "MissingLzSendOptions(uint32)": [
        {
          "notice": "Thrown when no LayerZero send options are available for destination endpoint."
        }
      ],
      "OnlyCoreOwner(address,address)": [
        {
          "notice": "Thrown when caller is not the current core owner."
        }
      ]
    },
    "events": {
      "LzReceive(uint32,bytes32,bytes32,address,uint256)": {
        "notice": "Emitted when an inbound LayerZero payload is accepted and bridged in."
      },
      "LzSend(uint32,bytes32,bytes32,address,address,uint256)": {
        "notice": "Emitted when an outbound LayerZero bridge payload is sent."
      },
      "LzSendOptionsSet(uint32,bytes)": {
        "notice": "Emitted when default LayerZero send options are updated."
      }
    },
    "kind": "user",
    "methods": {
      "allowInitializePath((uint32,bytes32,uint64))": {
        "notice": "Checks if the path initialization is allowed based on the provided origin."
      },
      "constructor": {
        "notice": "Initializes a LayerZero bridge adapter."
      },
      "core()": {
        "notice": "Returns the bridge core managed by this adapter."
      },
      "endpoint()": {
        "notice": "Retrieves the LayerZero endpoint associated with the OApp."
      },
      "isComposeMsgSender((uint32,bytes32,uint64),bytes,address)": {
        "notice": "Indicates whether an address is an approved composeMsg sender to the Endpoint."
      },
      "lzSendOptions(uint32)": {
        "notice": "Returns default LayerZero send options for a destination endpoint id."
      },
      "nextNonce(uint32,bytes32)": {
        "notice": "Retrieves the next nonce for a given source endpoint and sender address."
      },
      "oAppVersion()": {
        "notice": "Retrieves the OApp version information."
      },
      "peers(uint32)": {
        "notice": "Retrieves the peer (OApp) associated with a corresponding endpoint."
      },
      "quoteLzSend(uint32,address,uint256,bytes32,bytes,bool)": {
        "notice": "Quotes LayerZero fee required for a bridge send."
      },
      "sendWithLz(uint32,address,uint256,bytes32,bytes)": {
        "notice": "Bridges tokens through LayerZero to the configured remote peer."
      },
      "setDelegate(address)": {
        "notice": "Sets the delegate address for the OApp."
      },
      "setLzSendOptions(uint32,bytes)": {
        "notice": "Sets default LayerZero send options for a destination endpoint id."
      },
      "setPeer(uint32,bytes32)": {
        "notice": "Sets trusted LayerZero peer, gated by current core owner."
      }
    },
    "version": 1
  },
  "storageLayout": {
    "storage": [
      {
        "astId": 1327,
        "contract": "contracts/adapters/Token6022BridgeAdapterLZ.sol:Token6022BridgeAdapterLZ",
        "label": "_owner",
        "offset": 0,
        "slot": "0",
        "type": "t_address"
      },
      {
        "astId": 785,
        "contract": "contracts/adapters/Token6022BridgeAdapterLZ.sol:Token6022BridgeAdapterLZ",
        "label": "peers",
        "offset": 0,
        "slot": "1",
        "type": "t_mapping(t_uint32,t_bytes32)"
      },
      {
        "astId": 2167,
        "contract": "contracts/adapters/Token6022BridgeAdapterLZ.sol:Token6022BridgeAdapterLZ",
        "label": "lzSendOptions",
        "offset": 0,
        "slot": "2",
        "type": "t_mapping(t_uint32,t_bytes_storage)"
      }
    ],
    "types": {
      "t_address": {
        "encoding": "inplace",
        "label": "address",
        "numberOfBytes": "20"
      },
      "t_bytes32": {
        "encoding": "inplace",
        "label": "bytes32",
        "numberOfBytes": "32"
      },
      "t_bytes_storage": {
        "encoding": "bytes",
        "label": "bytes",
        "numberOfBytes": "32"
      },
      "t_mapping(t_uint32,t_bytes32)": {
        "encoding": "mapping",
        "key": "t_uint32",
        "label": "mapping(uint32 => bytes32)",
        "numberOfBytes": "32",
        "value": "t_bytes32"
      },
      "t_mapping(t_uint32,t_bytes_storage)": {
        "encoding": "mapping",
        "key": "t_uint32",
        "label": "mapping(uint32 => bytes)",
        "numberOfBytes": "32",
        "value": "t_bytes_storage"
      },
      "t_uint32": {
        "encoding": "inplace",
        "label": "uint32",
        "numberOfBytes": "4"
      }
    }
  }
}